{
    "contractName": "LightClient",
    "abi": [
        {
            "inputs": [
                {
                    "internalType": "bytes32",
                    "name": "trustedBlockRoot",
                    "type": "bytes32"
                },
                {
                    "components": [
                        {
                            "components": [
                                {
                                    "components": [
                                        {
                                            "internalType": "uint64",
                                            "name": "slot",
                                            "type": "uint64"
                                        },
                                        {
                                            "internalType": "uint64",
                                            "name": "proposerIndex",
                                            "type": "uint64"
                                        },
                                        {
                                            "internalType": "bytes32",
                                            "name": "parentRoot",
                                            "type": "bytes32"
                                        },
                                        {
                                            "internalType": "bytes32",
                                            "name": "stateRoot",
                                            "type": "bytes32"
                                        },
                                        {
                                            "internalType": "bytes32",
                                            "name": "bodyRoot",
                                            "type": "bytes32"
                                        }
                                    ],
                                    "internalType": "struct LightClient.BeaconBlockHeader",
                                    "name": "beacon",
                                    "type": "tuple"
                                },
                                {
                                    "components": [
                                        {
                                            "internalType": "bytes32",
                                            "name": "parentHash",
                                            "type": "bytes32"
                                        },
                                        {
                                            "internalType": "bytes20",
                                            "name": "feeRecipient",
                                            "type": "bytes20"
                                        },
                                        {
                                            "internalType": "bytes32",
                                            "name": "stateRoot",
                                            "type": "bytes32"
                                        },
                                        {
                                            "internalType": "bytes32",
                                            "name": "receiptsRoot",
                                            "type": "bytes32"
                                        },
                                        {
                                            "internalType": "bytes1[256]",
                                            "name": "logsBloom",
                                            "type": "bytes1[256]"
                                        },
                                        {
                                            "internalType": "bytes32",
                                            "name": "prevRandao",
                                            "type": "bytes32"
                                        },
                                        {
                                            "internalType": "uint64",
                                            "name": "blockNumber",
                                            "type": "uint64"
                                        },
                                        {
                                            "internalType": "uint64",
                                            "name": "gasLimit",
                                            "type": "uint64"
                                        },
                                        {
                                            "internalType": "uint64",
                                            "name": "gasUsed",
                                            "type": "uint64"
                                        },
                                        {
                                            "internalType": "uint64",
                                            "name": "timestamp",
                                            "type": "uint64"
                                        },
                                        {
                                            "internalType": "bytes1[]",
                                            "name": "extraData",
                                            "type": "bytes1[]"
                                        },
                                        {
                                            "internalType": "uint256",
                                            "name": "baseFeePerGas",
                                            "type": "uint256"
                                        },
                                        {
                                            "internalType": "bytes32",
                                            "name": "blockHash",
                                            "type": "bytes32"
                                        },
                                        {
                                            "internalType": "bytes32",
                                            "name": "transactionsRoot",
                                            "type": "bytes32"
                                        },
                                        {
                                            "internalType": "bytes32",
                                            "name": "withdrawalsRoot",
                                            "type": "bytes32"
                                        }
                                    ],
                                    "internalType": "struct LightClient.ExecutionPayloadHeader",
                                    "name": "execution",
                                    "type": "tuple"
                                },
                                {
                                    "internalType": "bytes32[4]",
                                    "name": "executionBranch",
                                    "type": "bytes32[4]"
                                }
                            ],
                            "internalType": "struct LightClient.LightClientHeader",
                            "name": "header",
                            "type": "tuple"
                        },
                        {
                            "components": [
                                {
                                    "internalType": "bytes[512]",
                                    "name": "pubkeys",
                                    "type": "bytes[512]"
                                },
                                {
                                    "internalType": "bytes",
                                    "name": "aggregatePubkey",
                                    "type": "bytes"
                                }
                            ],
                            "internalType": "struct LightClient.SyncCommittee",
                            "name": "currentSyncCommittee",
                            "type": "tuple"
                        },
                        {
                            "internalType": "bytes32[5]",
                            "name": "currentSyncCommitteeBranch",
                            "type": "bytes32[5]"
                        }
                    ],
                    "internalType": "struct LightClient.LightClientBootstrap",
                    "name": "bootstrap",
                    "type": "tuple"
                }
            ],
            "name": "initializeLightClientStore",
            "outputs": [],
            "stateMutability": "nonpayable",
            "type": "function"
        }
    ],
    "bytecode": "608060405234801561001057600080fd5b506106fc806100206000396000f3fe608060405234801561001057600080fd5b506004361061002b5760003560e01c8063a1e0d59c14610030575b600080fd5b61004261003e366004610581565b5050565b005b634e487b7160e01b600052604160045260246000fd5b6040516101e081016001600160401b038111828210171561007d5761007d610044565b60405290565b604080519081016001600160401b038111828210171561007d5761007d610044565b604051606081016001600160401b038111828210171561007d5761007d610044565b60405160a081016001600160401b038111828210171561007d5761007d610044565b60405161400081016001600160401b038111828210171561007d5761007d610044565b604051601f8201601f191681016001600160401b038111828210171561013457610134610044565b604052919050565b80356001600160401b038116811461015357600080fd5b919050565b80356bffffffffffffffffffffffff198116811461015357600080fd5b80356001600160f81b03198116811461015357600080fd5b600082601f83011261019e57600080fd5b6040516120008082018281106001600160401b03821117156101c2576101c2610044565b604052830181858211156101d557600080fd5b845b828110156101f6576101e881610175565b8252602091820191016101d7565b509195945050505050565b600082601f83011261021257600080fd5b813560206001600160401b0382111561022d5761022d610044565b8160051b61023c82820161010c565b928352848101820192828101908785111561025657600080fd5b83870192505b8483101561027c5761026d83610175565b8252918301919083019061025c565b979650505050505050565b60006121c0828403121561029a57600080fd5b6102a261005a565b9050813581526102b460208301610158565b602082015260408201356040820152606082013560608201526102da836080840161018d565b608082015261208082013560a08201526102f76120a0830161013c565b60c08201526103096120c0830161013c565b60e082015261031b6120e0830161013c565b61010082015261032e612100830161013c565b6101208201526121208201356001600160401b0381111561034e57600080fd5b61035a84828501610201565b610140830152506121408201356101608201526121608201356101808201526121808201356101a08201526121a08201356101c082015292915050565b600082601f8301126103a857600080fd5b604051608081018181106001600160401b03821117156103ca576103ca610044565b6040528060808401858111156103df57600080fd5b845b818110156101f65780358352602092830192016103e1565b600082601f83011261040a57600080fd5b81356001600160401b0381111561042357610423610044565b610436601f8201601f191660200161010c565b81815284602083860101111561044b57600080fd5b816020850160208301376000918101602001919091529392505050565b60006040828403121561047a57600080fd5b610482610083565b905081356001600160401b038082111561049b57600080fd5b818401915084601f8301126104af57600080fd5b6104b76100e9565b806140008401878111156104ca57600080fd5b845b818110156104ff578035858111156104e45760008081fd5b6104f08a8289016103f9565b855250602093840193016104cc565b5050845250602084013591508082111561051857600080fd5b50610525848285016103f9565b60208301525092915050565b600082601f83011261054257600080fd5b61054a6100c7565b8060a084018581111561055c57600080fd5b845b8181101561057657803584526020938401930161055e565b509095945050505050565b600080604080848603121561059557600080fd5b833592506020808501356001600160401b03808211156105b457600080fd5b9086019060e082890312156105c857600080fd5b6105d06100a5565b8235828111156105df57600080fd5b8301808a036101408112156105f357600080fd5b6105fb6100a5565b60a082121561060957600080fd5b6106116100c7565b915061061c8361013c565b825261062987840161013c565b878301528783013588830152606083013560608301526080830135608083015281815260a083013591508482111561066057600080fd5b61066c8c838501610287565b8782015261067d8c60c08501610397565b8189015283525050828401358281111561069657600080fd5b6106a28a828601610468565b85830152506106b389868501610531565b858201528095505050505050925092905056fea2646970667358221220c18c57c8d8fb42d2700d88179a0fe22dbddf26b908e050c64e075559ee1ce00a64736f6c63430008130033",
    "sourcePath": "/home/leonardo/Code/ethereum-light-client-py/light_client.sol",
    "compiler": {
        "name": "solc",
        "version": "0.8.19+commit.7dd6d404"
    },
    "functionHashes": {
        "initializeLightClientStore(bytes32,(((uint64,uint64,bytes32,bytes32,bytes32),(bytes32,bytes20,bytes32,bytes32,bytes1[256],bytes32,uint64,uint64,uint64,uint64,bytes1[],uint256,bytes32,bytes32,bytes32),bytes32[4]),(bytes[512],bytes),bytes32[5]))": "a1e0d59c"
    },
    "gasEstimates": {
        "creation": {
            "codeDepositCost": "357600",
            "executionCost": "393",
            "totalCost": "357993"
        },
        "external": {
            "initializeLightClientStore(bytes32,(((uint64,uint64,bytes32,bytes32,bytes32),(bytes32,bytes20,bytes32,bytes32,bytes1[256],bytes32,uint64,uint64,uint64,uint64,bytes1[],uint256,bytes32,bytes32,bytes32),bytes32[4]),(bytes[512],bytes),bytes32[5]))": "infinite"
        }
    }
}